{
  "_format": "hh-sol-artifact-1",
  "contractName": "TokenExchange",
  "sourceName": "contracts/TokenExchange.sol",
  "abi": [
    {
      "inputs": [
        {
          "internalType": "string",
          "name": "name_",
          "type": "string"
        },
        {
          "internalType": "string",
          "name": "symbol_",
          "type": "string"
        },
        {
          "internalType": "address",
          "name": "nftContract_",
          "type": "address"
        }
      ],
      "stateMutability": "nonpayable",
      "type": "constructor"
    },
    {
      "anonymous": false,
      "inputs": [
        {
          "indexed": false,
          "internalType": "string",
          "name": "",
          "type": "string"
        }
      ],
      "name": "DebugLogEvent",
      "type": "event"
    },
    {
      "anonymous": false,
      "inputs": [
        {
          "indexed": true,
          "internalType": "address",
          "name": "from",
          "type": "address"
        },
        {
          "indexed": false,
          "internalType": "uint256",
          "name": "amount",
          "type": "uint256"
        }
      ],
      "name": "TokenDeposit",
      "type": "event"
    },
    {
      "anonymous": false,
      "inputs": [
        {
          "indexed": true,
          "internalType": "address",
          "name": "from",
          "type": "address"
        },
        {
          "indexed": true,
          "internalType": "address",
          "name": "to",
          "type": "address"
        },
        {
          "indexed": false,
          "internalType": "uint256",
          "name": "amount",
          "type": "uint256"
        }
      ],
      "name": "TokenTransfer",
      "type": "event"
    },
    {
      "anonymous": false,
      "inputs": [
        {
          "indexed": true,
          "internalType": "address",
          "name": "from",
          "type": "address"
        },
        {
          "indexed": false,
          "internalType": "uint256",
          "name": "amount",
          "type": "uint256"
        }
      ],
      "name": "TokenWithdraw",
      "type": "event"
    },
    {
      "inputs": [
        {
          "internalType": "address",
          "name": "account",
          "type": "address"
        }
      ],
      "name": "balanceOf",
      "outputs": [
        {
          "internalType": "uint256",
          "name": "",
          "type": "uint256"
        }
      ],
      "stateMutability": "view",
      "type": "function"
    },
    {
      "inputs": [
        {
          "internalType": "uint256",
          "name": "amount",
          "type": "uint256"
        }
      ],
      "name": "deposit",
      "outputs": [],
      "stateMutability": "nonpayable",
      "type": "function"
    },
    {
      "inputs": [
        {
          "internalType": "address",
          "name": "account",
          "type": "address"
        }
      ],
      "name": "exchangeBalanceOf",
      "outputs": [
        {
          "internalType": "uint256",
          "name": "",
          "type": "uint256"
        }
      ],
      "stateMutability": "view",
      "type": "function"
    },
    {
      "inputs": [],
      "name": "exchangeTotalDeposit",
      "outputs": [
        {
          "internalType": "uint256",
          "name": "",
          "type": "uint256"
        }
      ],
      "stateMutability": "view",
      "type": "function"
    },
    {
      "inputs": [],
      "name": "name",
      "outputs": [
        {
          "internalType": "string",
          "name": "",
          "type": "string"
        }
      ],
      "stateMutability": "view",
      "type": "function"
    },
    {
      "inputs": [],
      "name": "owner",
      "outputs": [
        {
          "internalType": "address",
          "name": "",
          "type": "address"
        }
      ],
      "stateMutability": "view",
      "type": "function"
    },
    {
      "inputs": [],
      "name": "symbol",
      "outputs": [
        {
          "internalType": "string",
          "name": "",
          "type": "string"
        }
      ],
      "stateMutability": "view",
      "type": "function"
    },
    {
      "inputs": [],
      "name": "totalSupply",
      "outputs": [
        {
          "internalType": "uint256",
          "name": "",
          "type": "uint256"
        }
      ],
      "stateMutability": "pure",
      "type": "function"
    },
    {
      "inputs": [
        {
          "internalType": "address",
          "name": "to",
          "type": "address"
        },
        {
          "internalType": "uint256",
          "name": "amount",
          "type": "uint256"
        }
      ],
      "name": "transfer",
      "outputs": [],
      "stateMutability": "nonpayable",
      "type": "function"
    },
    {
      "inputs": [],
      "name": "userToken",
      "outputs": [
        {
          "internalType": "contract UserToken",
          "name": "",
          "type": "address"
        }
      ],
      "stateMutability": "view",
      "type": "function"
    },
    {
      "inputs": [
        {
          "internalType": "uint256",
          "name": "amount",
          "type": "uint256"
        }
      ],
      "name": "withdraw",
      "outputs": [],
      "stateMutability": "nonpayable",
      "type": "function"
    }
  ],
  "bytecode": "0x60806040523480156200001157600080fd5b5060405162001dd938038062001dd9833981810160405281019062000037919062000345565b82600190816200004891906200062a565b5081600290816200005a91906200062a565b5033600460006101000a81548173ffffffffffffffffffffffffffffffffffffffff021916908373ffffffffffffffffffffffffffffffffffffffff1602179055506103e860056000600460009054906101000a900473ffffffffffffffffffffffffffffffffffffffff1673ffffffffffffffffffffffffffffffffffffffff1673ffffffffffffffffffffffffffffffffffffffff16815260200190815260200160002081905550806000806101000a81548173ffffffffffffffffffffffffffffffffffffffff021916908373ffffffffffffffffffffffffffffffffffffffff16021790555050505062000711565b6000604051905090565b600080fd5b600080fd5b600080fd5b600080fd5b6000601f19601f8301169050919050565b7f4e487b7100000000000000000000000000000000000000000000000000000000600052604160045260246000fd5b620001b6826200016b565b810181811067ffffffffffffffff82111715620001d857620001d76200017c565b5b80604052505050565b6000620001ed6200014d565b9050620001fb8282620001ab565b919050565b600067ffffffffffffffff8211156200021e576200021d6200017c565b5b62000229826200016b565b9050602081019050919050565b60005b838110156200025657808201518184015260208101905062000239565b60008484015250505050565b600062000279620002738462000200565b620001e1565b90508281526020810184848401111562000298576200029762000166565b5b620002a584828562000236565b509392505050565b600082601f830112620002c557620002c462000161565b5b8151620002d784826020860162000262565b91505092915050565b600073ffffffffffffffffffffffffffffffffffffffff82169050919050565b60006200030d82620002e0565b9050919050565b6200031f8162000300565b81146200032b57600080fd5b50565b6000815190506200033f8162000314565b92915050565b60008060006060848603121562000361576200036062000157565b5b600084015167ffffffffffffffff8111156200038257620003816200015c565b5b6200039086828701620002ad565b935050602084015167ffffffffffffffff811115620003b457620003b36200015c565b5b620003c286828701620002ad565b9250506040620003d5868287016200032e565b9150509250925092565b600081519050919050565b7f4e487b7100000000000000000000000000000000000000000000000000000000600052602260045260246000fd5b600060028204905060018216806200043257607f821691505b602082108103620004485762000447620003ea565b5b50919050565b60008190508160005260206000209050919050565b60006020601f8301049050919050565b600082821b905092915050565b600060088302620004b27fffffffffffffffffffffffffffffffffffffffffffffffffffffffffffffffff8262000473565b620004be868362000473565b95508019841693508086168417925050509392505050565b6000819050919050565b6000819050919050565b60006200050b62000505620004ff84620004d6565b620004e0565b620004d6565b9050919050565b6000819050919050565b6200052783620004ea565b6200053f620005368262000512565b84845462000480565b825550505050565b600090565b6200055662000547565b620005638184846200051c565b505050565b5b818110156200058b576200057f6000826200054c565b60018101905062000569565b5050565b601f821115620005da57620005a4816200044e565b620005af8462000463565b81016020851015620005bf578190505b620005d7620005ce8562000463565b83018262000568565b50505b505050565b600082821c905092915050565b6000620005ff60001984600802620005df565b1980831691505092915050565b60006200061a8383620005ec565b9150826002028217905092915050565b6200063582620003df565b67ffffffffffffffff8111156200065157620006506200017c565b5b6200065d825462000419565b6200066a8282856200058f565b600060209050601f831160018114620006a257600084156200068d578287015190505b6200069985826200060c565b86555062000709565b601f198416620006b2866200044e565b60005b82811015620006dc57848901518255600182019150602085019450602081019050620006b5565b86831015620006fc5784890151620006f8601f891682620005ec565b8355505b6001600288020188555050505b505050505050565b6116b880620007216000396000f3fe608060405234801561001057600080fd5b50600436106100a95760003560e01c806370a082311161007157806370a08231146101545780638da5cb5b1461018457806395d89b41146101a2578063a9059cbb146101c0578063aae91610146101dc578063b6b55f25146101fa576100a9565b806306fdde03146100ae57806318160ddd146100cc5780632e1a7d4d146100ea57806338ef2cb01461010657806340cde40314610124575b600080fd5b6100b6610216565b6040516100c3919061103a565b60405180910390f35b6100d46102a8565b6040516100e19190611075565b60405180910390f35b61010460048036038101906100ff91906110c1565b6102b2565b005b61010e6105a0565b60405161011b919061116d565b60405180910390f35b61013e600480360381019061013991906111c6565b6105c4565b60405161014b9190611075565b60405180910390f35b61016e600480360381019061016991906111c6565b61060d565b60405161017b9190611075565b60405180910390f35b61018c610656565b6040516101999190611202565b60405180910390f35b6101aa61067c565b6040516101b7919061103a565b60405180910390f35b6101da60048036038101906101d5919061121d565b61070e565b005b6101e4610907565b6040516101f19190611075565b60405180910390f35b610214600480360381019061020f91906110c1565b610911565b005b6060600180546102259061128c565b80601f01602080910402602001604051908101604052809291908181526020018280546102519061128c565b801561029e5780601f106102735761010080835404028352916020019161029e565b820191906000526020600020905b81548152906001019060200180831161028157829003601f168201915b5050505050905090565b60006103e8905090565b60008060009054906101000a900473ffffffffffffffffffffffffffffffffffffffff1673ffffffffffffffffffffffffffffffffffffffff166370a08231336040518263ffffffff1660e01b815260040161030e9190611202565b602060405180830381865afa15801561032b573d6000803e3d6000fd5b505050506040513d601f19601f8201168201806040525081019061034f91906112d2565b1161038f576040517f08c379a00000000000000000000000000000000000000000000000000000000081526004016103869061134b565b60405180910390fd5b3373ffffffffffffffffffffffffffffffffffffffff16600460009054906101000a900473ffffffffffffffffffffffffffffffffffffffff1673ffffffffffffffffffffffffffffffffffffffff160361041f576040517f08c379a0000000000000000000000000000000000000000000000000000000008152600401610416906113b7565b60405180910390fd5b60003390506000600460009054906101000a900473ffffffffffffffffffffffffffffffffffffffff1690506000600660008473ffffffffffffffffffffffffffffffffffffffff1673ffffffffffffffffffffffffffffffffffffffff168152602001908152602001600020549050838110156104d2576040517f08c379a00000000000000000000000000000000000000000000000000000000081526004016104c990611449565b60405180910390fd5b6104dd828486610b77565b83600660008573ffffffffffffffffffffffffffffffffffffffff1673ffffffffffffffffffffffffffffffffffffffff168152602001908152602001600020600082825461052c9190611498565b9250508190555083600360008282546105459190611498565b925050819055508273ffffffffffffffffffffffffffffffffffffffff167f68577e4d693c1b056a60bc4e39438810239a0bfe64869c4eb7e3baebb5f65634856040516105929190611075565b60405180910390a250505050565b60008054906101000a900473ffffffffffffffffffffffffffffffffffffffff1681565b6000600660008373ffffffffffffffffffffffffffffffffffffffff1673ffffffffffffffffffffffffffffffffffffffff168152602001908152602001600020549050919050565b6000600560008373ffffffffffffffffffffffffffffffffffffffff1673ffffffffffffffffffffffffffffffffffffffff168152602001908152602001600020549050919050565b600460009054906101000a900473ffffffffffffffffffffffffffffffffffffffff1681565b60606002805461068b9061128c565b80601f01602080910402602001604051908101604052809291908181526020018280546106b79061128c565b80156107045780601f106106d957610100808354040283529160200191610704565b820191906000526020600020905b8154815290600101906020018083116106e757829003601f168201915b5050505050905090565b60008060009054906101000a900473ffffffffffffffffffffffffffffffffffffffff1673ffffffffffffffffffffffffffffffffffffffff166370a08231336040518263ffffffff1660e01b815260040161076a9190611202565b602060405180830381865afa158015610787573d6000803e3d6000fd5b505050506040513d601f19601f820116820180604052508101906107ab91906112d2565b116107eb576040517f08c379a00000000000000000000000000000000000000000000000000000000081526004016107e29061134b565b60405180910390fd5b3373ffffffffffffffffffffffffffffffffffffffff16600460009054906101000a900473ffffffffffffffffffffffffffffffffffffffff1673ffffffffffffffffffffffffffffffffffffffff16036108f2578060035460056000600460009054906101000a900473ffffffffffffffffffffffffffffffffffffffff1673ffffffffffffffffffffffffffffffffffffffff1673ffffffffffffffffffffffffffffffffffffffff168152602001908152602001600020546108b09190611498565b10156108f1576040517f08c379a00000000000000000000000000000000000000000000000000000000081526004016108e89061153e565b60405180910390fd5b5b6000339050610902818484610b77565b505050565b6000600354905090565b60008060009054906101000a900473ffffffffffffffffffffffffffffffffffffffff1673ffffffffffffffffffffffffffffffffffffffff166370a08231336040518263ffffffff1660e01b815260040161096d9190611202565b602060405180830381865afa15801561098a573d6000803e3d6000fd5b505050506040513d601f19601f820116820180604052508101906109ae91906112d2565b116109ee576040517f08c379a00000000000000000000000000000000000000000000000000000000081526004016109e59061134b565b60405180910390fd5b3373ffffffffffffffffffffffffffffffffffffffff16600460009054906101000a900473ffffffffffffffffffffffffffffffffffffffff1673ffffffffffffffffffffffffffffffffffffffff1603610a7e576040517f08c379a0000000000000000000000000000000000000000000000000000000008152600401610a75906113b7565b60405180910390fd5b60003390506000600460009054906101000a900473ffffffffffffffffffffffffffffffffffffffff169050610ab5818385610b77565b82600660008373ffffffffffffffffffffffffffffffffffffffff1673ffffffffffffffffffffffffffffffffffffffff1681526020019081526020016000206000828254610b04919061155e565b925050819055508260036000828254610b1d919061155e565b925050819055508073ffffffffffffffffffffffffffffffffffffffff167f20b3fc91390f6ceba342f697a9490734680fd3556633f40efa146f1dbe79d05f84604051610b6a9190611075565b60405180910390a2505050565b600073ffffffffffffffffffffffffffffffffffffffff168273ffffffffffffffffffffffffffffffffffffffff1603610be6576040517f08c379a0000000000000000000000000000000000000000000000000000000008152600401610bdd90611604565b60405180910390fd5b6000600560008573ffffffffffffffffffffffffffffffffffffffff1673ffffffffffffffffffffffffffffffffffffffff16815260200190815260200160002054905081811015610c3783610d89565b90610c78576040517f08c379a0000000000000000000000000000000000000000000000000000000008152600401610c6f919061103a565b60405180910390fd5b508181610c859190611498565b600560008673ffffffffffffffffffffffffffffffffffffffff1673ffffffffffffffffffffffffffffffffffffffff1681526020019081526020016000208190555081600560008573ffffffffffffffffffffffffffffffffffffffff1673ffffffffffffffffffffffffffffffffffffffff1681526020019081526020016000206000828254610d17919061155e565b925050819055508273ffffffffffffffffffffffffffffffffffffffff168473ffffffffffffffffffffffffffffffffffffffff167fd0ed88a3f042c6bbb1e3ea406079b5f2b4b198afccaa535d837f4c63abbc4de684604051610d7b9190611075565b60405180910390a350505050565b606060006001610d9884610e57565b01905060008167ffffffffffffffff811115610db757610db6611624565b5b6040519080825280601f01601f191660200182016040528015610de95781602001600182028036833780820191505090505b509050600082602001820190505b600115610e4c578080600190039150507f3031323334353637383961626364656600000000000000000000000000000000600a86061a8153600a8581610e4057610e3f611653565b5b04945060008503610df7575b819350505050919050565b600080600090507a184f03e93ff9f4daa797ed6e38ed64bf6a1f0100000000000000008310610eb5577a184f03e93ff9f4daa797ed6e38ed64bf6a1f0100000000000000008381610eab57610eaa611653565b5b0492506040810190505b6d04ee2d6d415b85acef81000000008310610ef2576d04ee2d6d415b85acef81000000008381610ee857610ee7611653565b5b0492506020810190505b662386f26fc100008310610f2157662386f26fc100008381610f1757610f16611653565b5b0492506010810190505b6305f5e1008310610f4a576305f5e1008381610f4057610f3f611653565b5b0492506008810190505b6127108310610f6f576127108381610f6557610f64611653565b5b0492506004810190505b60648310610f925760648381610f8857610f87611653565b5b0492506002810190505b600a8310610fa1576001810190505b80915050919050565b600081519050919050565b600082825260208201905092915050565b60005b83811015610fe4578082015181840152602081019050610fc9565b60008484015250505050565b6000601f19601f8301169050919050565b600061100c82610faa565b6110168185610fb5565b9350611026818560208601610fc6565b61102f81610ff0565b840191505092915050565b600060208201905081810360008301526110548184611001565b905092915050565b6000819050919050565b61106f8161105c565b82525050565b600060208201905061108a6000830184611066565b92915050565b600080fd5b61109e8161105c565b81146110a957600080fd5b50565b6000813590506110bb81611095565b92915050565b6000602082840312156110d7576110d6611090565b5b60006110e5848285016110ac565b91505092915050565b600073ffffffffffffffffffffffffffffffffffffffff82169050919050565b6000819050919050565b600061113361112e611129846110ee565b61110e565b6110ee565b9050919050565b600061114582611118565b9050919050565b60006111578261113a565b9050919050565b6111678161114c565b82525050565b6000602082019050611182600083018461115e565b92915050565b6000611193826110ee565b9050919050565b6111a381611188565b81146111ae57600080fd5b50565b6000813590506111c08161119a565b92915050565b6000602082840312156111dc576111db611090565b5b60006111ea848285016111b1565b91505092915050565b6111fc81611188565b82525050565b600060208201905061121760008301846111f3565b92915050565b6000806040838503121561123457611233611090565b5b6000611242858286016111b1565b9250506020611253858286016110ac565b9150509250929050565b7f4e487b7100000000000000000000000000000000000000000000000000000000600052602260045260246000fd5b600060028204905060018216806112a457607f821691505b6020821081036112b7576112b661125d565b5b50919050565b6000815190506112cc81611095565b92915050565b6000602082840312156112e8576112e7611090565b5b60006112f6848285016112bd565b91505092915050565b7f6e6f74206e667420757365720000000000000000000000000000000000000000600082015250565b6000611335600c83610fb5565b9150611340826112ff565b602082019050919050565b6000602082019050818103600083015261136481611328565b9050919050565b7f4f776e65722063616e6e6f742065786563757465000000000000000000000000600082015250565b60006113a1601483610fb5565b91506113ac8261136b565b602082019050919050565b600060208201905081810360008301526113d081611394565b9050919050565b7f416e20616d6f756e742067726561746572207468616e20796f757220746f6b6560008201527f6e45786368616e67652062616c616e6365210000000000000000000000000000602082015250565b6000611433603283610fb5565b915061143e826113d7565b604082019050919050565b6000602082019050818103600083015261146281611426565b9050919050565b7f4e487b7100000000000000000000000000000000000000000000000000000000600052601160045260246000fd5b60006114a38261105c565b91506114ae8361105c565b92508282039050818111156114c6576114c5611469565b5b92915050565b7f616d6f756e74732067726561746572207468616e2074686520746f74616c207360008201527f7570706c792063616e6e6f74206265207472616e736665727265640000000000602082015250565b6000611528603b83610fb5565b9150611533826114cc565b604082019050919050565b600060208201905081810360008301526115578161151b565b9050919050565b60006115698261105c565b91506115748361105c565b925082820190508082111561158c5761158b611469565b5b92915050565b7f5a65726f20616464726573732063616e6e6f742062652073706563696669656460008201527f20666f722027746f272100000000000000000000000000000000000000000000602082015250565b60006115ee602a83610fb5565b91506115f982611592565b604082019050919050565b6000602082019050818103600083015261161d816115e1565b9050919050565b7f4e487b7100000000000000000000000000000000000000000000000000000000600052604160045260246000fd5b7f4e487b7100000000000000000000000000000000000000000000000000000000600052601260045260246000fdfea26469706673582212203c87624e00b18b3e442081750c7d57873830aefcc7680d0dba05b7c687999c8d64736f6c63430008140033",
  "linkReferences": {},
  "deployedLinkReferences": {}
}