{
  "_format": "hh-sol-artifact-1",
  "contractName": "UserNFT",
  "sourceName": "contracts/UserNFT.sol",
  "abi": [
    {
      "inputs": [],
      "stateMutability": "nonpayable",
      "type": "constructor"
    },
    {
      "inputs": [
        {
          "internalType": "address",
          "name": "sender",
          "type": "address"
        },
        {
          "internalType": "uint256",
          "name": "tokenId",
          "type": "uint256"
        },
        {
          "internalType": "address",
          "name": "owner",
          "type": "address"
        }
      ],
      "name": "ERC721IncorrectOwner",
      "type": "error"
    },
    {
      "inputs": [
        {
          "internalType": "address",
          "name": "operator",
          "type": "address"
        },
        {
          "internalType": "uint256",
          "name": "tokenId",
          "type": "uint256"
        }
      ],
      "name": "ERC721InsufficientApproval",
      "type": "error"
    },
    {
      "inputs": [
        {
          "internalType": "address",
          "name": "approver",
          "type": "address"
        }
      ],
      "name": "ERC721InvalidApprover",
      "type": "error"
    },
    {
      "inputs": [
        {
          "internalType": "address",
          "name": "operator",
          "type": "address"
        }
      ],
      "name": "ERC721InvalidOperator",
      "type": "error"
    },
    {
      "inputs": [
        {
          "internalType": "address",
          "name": "owner",
          "type": "address"
        }
      ],
      "name": "ERC721InvalidOwner",
      "type": "error"
    },
    {
      "inputs": [
        {
          "internalType": "address",
          "name": "receiver",
          "type": "address"
        }
      ],
      "name": "ERC721InvalidReceiver",
      "type": "error"
    },
    {
      "inputs": [
        {
          "internalType": "address",
          "name": "sender",
          "type": "address"
        }
      ],
      "name": "ERC721InvalidSender",
      "type": "error"
    },
    {
      "inputs": [
        {
          "internalType": "uint256",
          "name": "tokenId",
          "type": "uint256"
        }
      ],
      "name": "ERC721NonexistentToken",
      "type": "error"
    },
    {
      "inputs": [
        {
          "internalType": "address",
          "name": "owner",
          "type": "address"
        }
      ],
      "name": "OwnableInvalidOwner",
      "type": "error"
    },
    {
      "inputs": [
        {
          "internalType": "address",
          "name": "account",
          "type": "address"
        }
      ],
      "name": "OwnableUnauthorizedAccount",
      "type": "error"
    },
    {
      "anonymous": false,
      "inputs": [
        {
          "indexed": true,
          "internalType": "address",
          "name": "owner",
          "type": "address"
        },
        {
          "indexed": true,
          "internalType": "address",
          "name": "approved",
          "type": "address"
        },
        {
          "indexed": true,
          "internalType": "uint256",
          "name": "tokenId",
          "type": "uint256"
        }
      ],
      "name": "Approval",
      "type": "event"
    },
    {
      "anonymous": false,
      "inputs": [
        {
          "indexed": true,
          "internalType": "address",
          "name": "owner",
          "type": "address"
        },
        {
          "indexed": true,
          "internalType": "address",
          "name": "operator",
          "type": "address"
        },
        {
          "indexed": false,
          "internalType": "bool",
          "name": "approved",
          "type": "bool"
        }
      ],
      "name": "ApprovalForAll",
      "type": "event"
    },
    {
      "anonymous": false,
      "inputs": [
        {
          "indexed": false,
          "internalType": "uint256",
          "name": "_fromTokenId",
          "type": "uint256"
        },
        {
          "indexed": false,
          "internalType": "uint256",
          "name": "_toTokenId",
          "type": "uint256"
        }
      ],
      "name": "BatchMetadataUpdate",
      "type": "event"
    },
    {
      "anonymous": false,
      "inputs": [
        {
          "indexed": false,
          "internalType": "uint256",
          "name": "_tokenId",
          "type": "uint256"
        }
      ],
      "name": "MetadataUpdate",
      "type": "event"
    },
    {
      "anonymous": false,
      "inputs": [
        {
          "indexed": true,
          "internalType": "address",
          "name": "previousOwner",
          "type": "address"
        },
        {
          "indexed": true,
          "internalType": "address",
          "name": "newOwner",
          "type": "address"
        }
      ],
      "name": "OwnershipTransferred",
      "type": "event"
    },
    {
      "anonymous": false,
      "inputs": [
        {
          "indexed": true,
          "internalType": "address",
          "name": "to",
          "type": "address"
        },
        {
          "indexed": true,
          "internalType": "uint256",
          "name": "tokenId",
          "type": "uint256"
        },
        {
          "indexed": false,
          "internalType": "string",
          "name": "uri",
          "type": "string"
        }
      ],
      "name": "TokenURIChanged",
      "type": "event"
    },
    {
      "anonymous": false,
      "inputs": [
        {
          "indexed": true,
          "internalType": "address",
          "name": "from",
          "type": "address"
        },
        {
          "indexed": true,
          "internalType": "address",
          "name": "to",
          "type": "address"
        },
        {
          "indexed": true,
          "internalType": "uint256",
          "name": "tokenId",
          "type": "uint256"
        }
      ],
      "name": "Transfer",
      "type": "event"
    },
    {
      "inputs": [
        {
          "internalType": "address",
          "name": "to",
          "type": "address"
        },
        {
          "internalType": "uint256",
          "name": "tokenId",
          "type": "uint256"
        }
      ],
      "name": "approve",
      "outputs": [],
      "stateMutability": "nonpayable",
      "type": "function"
    },
    {
      "inputs": [
        {
          "internalType": "address",
          "name": "player",
          "type": "address"
        },
        {
          "internalType": "string",
          "name": "tokenURI",
          "type": "string"
        }
      ],
      "name": "awardItem",
      "outputs": [
        {
          "internalType": "uint256",
          "name": "",
          "type": "uint256"
        }
      ],
      "stateMutability": "nonpayable",
      "type": "function"
    },
    {
      "inputs": [
        {
          "internalType": "address",
          "name": "owner",
          "type": "address"
        }
      ],
      "name": "balanceOf",
      "outputs": [
        {
          "internalType": "uint256",
          "name": "",
          "type": "uint256"
        }
      ],
      "stateMutability": "view",
      "type": "function"
    },
    {
      "inputs": [
        {
          "internalType": "uint256",
          "name": "tokenId",
          "type": "uint256"
        }
      ],
      "name": "getApproved",
      "outputs": [
        {
          "internalType": "address",
          "name": "",
          "type": "address"
        }
      ],
      "stateMutability": "view",
      "type": "function"
    },
    {
      "inputs": [
        {
          "internalType": "address",
          "name": "owner",
          "type": "address"
        },
        {
          "internalType": "address",
          "name": "operator",
          "type": "address"
        }
      ],
      "name": "isApprovedForAll",
      "outputs": [
        {
          "internalType": "bool",
          "name": "",
          "type": "bool"
        }
      ],
      "stateMutability": "view",
      "type": "function"
    },
    {
      "inputs": [],
      "name": "name",
      "outputs": [
        {
          "internalType": "string",
          "name": "",
          "type": "string"
        }
      ],
      "stateMutability": "view",
      "type": "function"
    },
    {
      "inputs": [
        {
          "internalType": "address",
          "name": "to",
          "type": "address"
        },
        {
          "internalType": "string",
          "name": "uri",
          "type": "string"
        }
      ],
      "name": "nftMint",
      "outputs": [],
      "stateMutability": "nonpayable",
      "type": "function"
    },
    {
      "inputs": [],
      "name": "owner",
      "outputs": [
        {
          "internalType": "address",
          "name": "",
          "type": "address"
        }
      ],
      "stateMutability": "view",
      "type": "function"
    },
    {
      "inputs": [
        {
          "internalType": "uint256",
          "name": "tokenId",
          "type": "uint256"
        }
      ],
      "name": "ownerOf",
      "outputs": [
        {
          "internalType": "address",
          "name": "",
          "type": "address"
        }
      ],
      "stateMutability": "view",
      "type": "function"
    },
    {
      "inputs": [],
      "name": "renounceOwnership",
      "outputs": [],
      "stateMutability": "nonpayable",
      "type": "function"
    },
    {
      "inputs": [
        {
          "internalType": "address",
          "name": "from",
          "type": "address"
        },
        {
          "internalType": "address",
          "name": "to",
          "type": "address"
        },
        {
          "internalType": "uint256",
          "name": "tokenId",
          "type": "uint256"
        }
      ],
      "name": "safeTransferFrom",
      "outputs": [],
      "stateMutability": "nonpayable",
      "type": "function"
    },
    {
      "inputs": [
        {
          "internalType": "address",
          "name": "from",
          "type": "address"
        },
        {
          "internalType": "address",
          "name": "to",
          "type": "address"
        },
        {
          "internalType": "uint256",
          "name": "tokenId",
          "type": "uint256"
        },
        {
          "internalType": "bytes",
          "name": "data",
          "type": "bytes"
        }
      ],
      "name": "safeTransferFrom",
      "outputs": [],
      "stateMutability": "nonpayable",
      "type": "function"
    },
    {
      "inputs": [
        {
          "internalType": "address",
          "name": "operator",
          "type": "address"
        },
        {
          "internalType": "bool",
          "name": "approved",
          "type": "bool"
        }
      ],
      "name": "setApprovalForAll",
      "outputs": [],
      "stateMutability": "nonpayable",
      "type": "function"
    },
    {
      "inputs": [
        {
          "internalType": "bytes4",
          "name": "interfaceId",
          "type": "bytes4"
        }
      ],
      "name": "supportsInterface",
      "outputs": [
        {
          "internalType": "bool",
          "name": "",
          "type": "bool"
        }
      ],
      "stateMutability": "view",
      "type": "function"
    },
    {
      "inputs": [],
      "name": "symbol",
      "outputs": [
        {
          "internalType": "string",
          "name": "",
          "type": "string"
        }
      ],
      "stateMutability": "view",
      "type": "function"
    },
    {
      "inputs": [
        {
          "internalType": "uint256",
          "name": "tokenId",
          "type": "uint256"
        }
      ],
      "name": "tokenURI",
      "outputs": [
        {
          "internalType": "string",
          "name": "",
          "type": "string"
        }
      ],
      "stateMutability": "view",
      "type": "function"
    },
    {
      "inputs": [
        {
          "internalType": "address",
          "name": "from",
          "type": "address"
        },
        {
          "internalType": "address",
          "name": "to",
          "type": "address"
        },
        {
          "internalType": "uint256",
          "name": "tokenId",
          "type": "uint256"
        }
      ],
      "name": "transferFrom",
      "outputs": [],
      "stateMutability": "nonpayable",
      "type": "function"
    },
    {
      "inputs": [
        {
          "internalType": "address",
          "name": "newOwner",
          "type": "address"
        }
      ],
      "name": "transferOwnership",
      "outputs": [],
      "stateMutability": "nonpayable",
      "type": "function"
    }
  ],
  "bytecode": "0x60806040523480156200001157600080fd5b50336040518060400160405280600781526020017f557365724e4654000000000000000000000000000000000000000000000000008152506040518060400160405280600381526020017f55534e0000000000000000000000000000000000000000000000000000000000815250816000908162000090919062000472565b508060019081620000a2919062000472565b505050600073ffffffffffffffffffffffffffffffffffffffff168173ffffffffffffffffffffffffffffffffffffffff16036200011a5760006040517f1e4fbdf70000000000000000000000000000000000000000000000000000000081526004016200011191906200059e565b60405180910390fd5b6200012b816200013260201b60201c565b50620005bb565b6000600760009054906101000a900473ffffffffffffffffffffffffffffffffffffffff16905081600760006101000a81548173ffffffffffffffffffffffffffffffffffffffff021916908373ffffffffffffffffffffffffffffffffffffffff1602179055508173ffffffffffffffffffffffffffffffffffffffff168173ffffffffffffffffffffffffffffffffffffffff167f8be0079c531659141344cd1fd0a4f28419497f9722a3daafe3b4186f6b6457e060405160405180910390a35050565b600081519050919050565b7f4e487b7100000000000000000000000000000000000000000000000000000000600052604160045260246000fd5b7f4e487b7100000000000000000000000000000000000000000000000000000000600052602260045260246000fd5b600060028204905060018216806200027a57607f821691505b60208210810362000290576200028f62000232565b5b50919050565b60008190508160005260206000209050919050565b60006020601f8301049050919050565b600082821b905092915050565b600060088302620002fa7fffffffffffffffffffffffffffffffffffffffffffffffffffffffffffffffff82620002bb565b620003068683620002bb565b95508019841693508086168417925050509392505050565b6000819050919050565b6000819050919050565b6000620003536200034d62000347846200031e565b62000328565b6200031e565b9050919050565b6000819050919050565b6200036f8362000332565b620003876200037e826200035a565b848454620002c8565b825550505050565b600090565b6200039e6200038f565b620003ab81848462000364565b505050565b5b81811015620003d357620003c760008262000394565b600181019050620003b1565b5050565b601f8211156200042257620003ec8162000296565b620003f784620002ab565b8101602085101562000407578190505b6200041f6200041685620002ab565b830182620003b0565b50505b505050565b600082821c905092915050565b6000620004476000198460080262000427565b1980831691505092915050565b600062000462838362000434565b9150826002028217905092915050565b6200047d82620001f8565b67ffffffffffffffff81111562000499576200049862000203565b5b620004a5825462000261565b620004b2828285620003d7565b600060209050601f831160018114620004ea5760008415620004d5578287015190505b620004e1858262000454565b86555062000551565b601f198416620004fa8662000296565b60005b828110156200052457848901518255600182019150602085019450602081019050620004fd565b8683101562000544578489015162000540601f89168262000434565b8355505b6001600288020188555050505b505050505050565b600073ffffffffffffffffffffffffffffffffffffffff82169050919050565b6000620005868262000559565b9050919050565b620005988162000579565b82525050565b6000602082019050620005b560008301846200058d565b92915050565b61283180620005cb6000396000f3fe608060405234801561001057600080fd5b50600436106101165760003560e01c8063715018a6116100a2578063b88d4fde11610071578063b88d4fde146102cb578063c87b56dd146102e7578063cf37834314610317578063e985e9c514610347578063f2fde38b1461037757610116565b8063715018a6146102695780638da5cb5b1461027357806395d89b4114610291578063a22cb465146102af57610116565b806323b872dd116100e957806323b872dd146101b557806330e96089146101d157806342842e0e146101ed5780636352211e1461020957806370a082311461023957610116565b806301ffc9a71461011b57806306fdde031461014b578063081812fc14610169578063095ea7b314610199575b600080fd5b61013560048036038101906101309190611b8c565b610393565b6040516101429190611bd4565b60405180910390f35b6101536103f4565b6040516101609190611c7f565b60405180910390f35b610183600480360381019061017e9190611cd7565b610486565b6040516101909190611d45565b60405180910390f35b6101b360048036038101906101ae9190611d8c565b6104a2565b005b6101cf60048036038101906101ca9190611dcc565b6104b8565b005b6101eb60048036038101906101e69190611e84565b6105ba565b005b61020760048036038101906102029190611dcc565b610690565b005b610223600480360381019061021e9190611cd7565b6106b0565b6040516102309190611d45565b60405180910390f35b610253600480360381019061024e9190611ee4565b6106c2565b6040516102609190611f20565b60405180910390f35b61027161077c565b005b61027b610790565b6040516102889190611d45565b60405180910390f35b6102996107ba565b6040516102a69190611c7f565b60405180910390f35b6102c960048036038101906102c49190611f67565b61084c565b005b6102e560048036038101906102e091906120d7565b610862565b005b61030160048036038101906102fc9190611cd7565b61087f565b60405161030e9190611c7f565b60405180910390f35b610331600480360381019061032c91906121fb565b610992565b60405161033e9190611f20565b60405180910390f35b610361600480360381019061035c9190612257565b6109d1565b60405161036e9190611bd4565b60405180910390f35b610391600480360381019061038c9190611ee4565b610a65565b005b6000634906490660e01b7bffffffffffffffffffffffffffffffffffffffffffffffffffffffff1916827bffffffffffffffffffffffffffffffffffffffffffffffffffffffff191614806103ed57506103ec82610aeb565b5b9050919050565b606060008054610403906122c6565b80601f016020809104026020016040519081016040528092919081815260200182805461042f906122c6565b801561047c5780601f106104515761010080835404028352916020019161047c565b820191906000526020600020905b81548152906001019060200180831161045f57829003601f168201915b5050505050905090565b600061049182610bcd565b5061049b82610c55565b9050919050565b6104b482826104af610c92565b610c9a565b5050565b600073ffffffffffffffffffffffffffffffffffffffff168273ffffffffffffffffffffffffffffffffffffffff160361052a5760006040517f64a0ae920000000000000000000000000000000000000000000000000000000081526004016105219190611d45565b60405180910390fd5b600061053e8383610539610c92565b610cac565b90508373ffffffffffffffffffffffffffffffffffffffff168173ffffffffffffffffffffffffffffffffffffffff16146105b4578382826040517f64283d7b0000000000000000000000000000000000000000000000000000000081526004016105ab939291906122f7565b60405180910390fd5b50505050565b6105c2610ec6565b6001600860008282546105d5919061235d565b925050819055506105e883600854610f4d565b61063860085483838080601f016020809104026020016040519081016040528093929190818152602001838380828437600081840152601f19601f82011690508083019250505050505050611046565b6008548373ffffffffffffffffffffffffffffffffffffffff167f8b781fcc9d1a958b4e7e04390a81f45bdec2dc61341e7b423a537074275dc70d84846040516106839291906123be565b60405180910390a3505050565b6106ab83838360405180602001604052806000815250610862565b505050565b60006106bb82610bcd565b9050919050565b60008073ffffffffffffffffffffffffffffffffffffffff168273ffffffffffffffffffffffffffffffffffffffff16036107355760006040517f89c62b6400000000000000000000000000000000000000000000000000000000815260040161072c9190611d45565b60405180910390fd5b600360008373ffffffffffffffffffffffffffffffffffffffff1673ffffffffffffffffffffffffffffffffffffffff168152602001908152602001600020549050919050565b610784610ec6565b61078e60006110a2565b565b6000600760009054906101000a900473ffffffffffffffffffffffffffffffffffffffff16905090565b6060600180546107c9906122c6565b80601f01602080910402602001604051908101604052809291908181526020018280546107f5906122c6565b80156108425780601f1061081757610100808354040283529160200191610842565b820191906000526020600020905b81548152906001019060200180831161082557829003601f168201915b5050505050905090565b61085e610857610c92565b8383611168565b5050565b61086d8484846104b8565b610879848484846112d7565b50505050565b606061088a82610bcd565b5060006006600084815260200190815260200160002080546108ab906122c6565b80601f01602080910402602001604051908101604052809291908181526020018280546108d7906122c6565b80156109245780601f106108f957610100808354040283529160200191610924565b820191906000526020600020905b81548152906001019060200180831161090757829003601f168201915b50505050509050600061093561148e565b9050600081510361094a57819250505061098d565b60008251111561097f57808260405160200161096792919061241e565b6040516020818303038152906040529250505061098d565b610988846114a5565b925050505b919050565b60006001600860008282546109a7919061235d565b925050819055506109ba83600854610f4d565b6109c660085483611046565b600854905092915050565b6000600560008473ffffffffffffffffffffffffffffffffffffffff1673ffffffffffffffffffffffffffffffffffffffff16815260200190815260200160002060008373ffffffffffffffffffffffffffffffffffffffff1673ffffffffffffffffffffffffffffffffffffffff16815260200190815260200160002060009054906101000a900460ff16905092915050565b610a6d610ec6565b600073ffffffffffffffffffffffffffffffffffffffff168173ffffffffffffffffffffffffffffffffffffffff1603610adf5760006040517f1e4fbdf7000000000000000000000000000000000000000000000000000000008152600401610ad69190611d45565b60405180910390fd5b610ae8816110a2565b50565b60007f80ac58cd000000000000000000000000000000000000000000000000000000007bffffffffffffffffffffffffffffffffffffffffffffffffffffffff1916827bffffffffffffffffffffffffffffffffffffffffffffffffffffffff19161480610bb657507f5b5e139f000000000000000000000000000000000000000000000000000000007bffffffffffffffffffffffffffffffffffffffffffffffffffffffff1916827bffffffffffffffffffffffffffffffffffffffffffffffffffffffff1916145b80610bc65750610bc58261150e565b5b9050919050565b600080610bd983611578565b9050600073ffffffffffffffffffffffffffffffffffffffff168173ffffffffffffffffffffffffffffffffffffffff1603610c4c57826040517f7e273289000000000000000000000000000000000000000000000000000000008152600401610c439190611f20565b60405180910390fd5b80915050919050565b60006004600083815260200190815260200160002060009054906101000a900473ffffffffffffffffffffffffffffffffffffffff169050919050565b600033905090565b610ca783838360016115b5565b505050565b600080610cb884611578565b9050600073ffffffffffffffffffffffffffffffffffffffff168373ffffffffffffffffffffffffffffffffffffffff1614610cfa57610cf981848661177a565b5b600073ffffffffffffffffffffffffffffffffffffffff168173ffffffffffffffffffffffffffffffffffffffff1614610d8b57610d3c6000856000806115b5565b6001600360008373ffffffffffffffffffffffffffffffffffffffff1673ffffffffffffffffffffffffffffffffffffffff168152602001908152602001600020600082825403925050819055505b600073ffffffffffffffffffffffffffffffffffffffff168573ffffffffffffffffffffffffffffffffffffffff1614610e0e576001600360008773ffffffffffffffffffffffffffffffffffffffff1673ffffffffffffffffffffffffffffffffffffffff168152602001908152602001600020600082825401925050819055505b846002600086815260200190815260200160002060006101000a81548173ffffffffffffffffffffffffffffffffffffffff021916908373ffffffffffffffffffffffffffffffffffffffff160217905550838573ffffffffffffffffffffffffffffffffffffffff168273ffffffffffffffffffffffffffffffffffffffff167fddf252ad1be2c89b69c2b068fc378daa952ba7f163c4a11628f55a4df523b3ef60405160405180910390a4809150509392505050565b610ece610c92565b73ffffffffffffffffffffffffffffffffffffffff16610eec610790565b73ffffffffffffffffffffffffffffffffffffffff1614610f4b57610f0f610c92565b6040517f118cdaa7000000000000000000000000000000000000000000000000000000008152600401610f429190611d45565b60405180910390fd5b565b600073ffffffffffffffffffffffffffffffffffffffff168273ffffffffffffffffffffffffffffffffffffffff1603610fbf5760006040517f64a0ae92000000000000000000000000000000000000000000000000000000008152600401610fb69190611d45565b60405180910390fd5b6000610fcd83836000610cac565b9050600073ffffffffffffffffffffffffffffffffffffffff168173ffffffffffffffffffffffffffffffffffffffff16146110415760006040517f73c6ac6e0000000000000000000000000000000000000000000000000000000081526004016110389190611d45565b60405180910390fd5b505050565b8060066000848152602001908152602001600020908161106691906125ee565b507ff8e1a15aba9398e019f0b49df1a4fde98ee17ae345cb5f6b5e2c27f5033e8ce7826040516110969190611f20565b60405180910390a15050565b6000600760009054906101000a900473ffffffffffffffffffffffffffffffffffffffff16905081600760006101000a81548173ffffffffffffffffffffffffffffffffffffffff021916908373ffffffffffffffffffffffffffffffffffffffff1602179055508173ffffffffffffffffffffffffffffffffffffffff168173ffffffffffffffffffffffffffffffffffffffff167f8be0079c531659141344cd1fd0a4f28419497f9722a3daafe3b4186f6b6457e060405160405180910390a35050565b600073ffffffffffffffffffffffffffffffffffffffff168273ffffffffffffffffffffffffffffffffffffffff16036111d957816040517f5b08ba180000000000000000000000000000000000000000000000000000000081526004016111d09190611d45565b60405180910390fd5b80600560008573ffffffffffffffffffffffffffffffffffffffff1673ffffffffffffffffffffffffffffffffffffffff16815260200190815260200160002060008473ffffffffffffffffffffffffffffffffffffffff1673ffffffffffffffffffffffffffffffffffffffff16815260200190815260200160002060006101000a81548160ff0219169083151502179055508173ffffffffffffffffffffffffffffffffffffffff168373ffffffffffffffffffffffffffffffffffffffff167f17307eab39ab6107e8899845ad3d59bd9653f200f220920489ca2b5937696c31836040516112ca9190611bd4565b60405180910390a3505050565b60008373ffffffffffffffffffffffffffffffffffffffff163b1115611488578273ffffffffffffffffffffffffffffffffffffffff1663150b7a0261131b610c92565b8685856040518563ffffffff1660e01b815260040161133d9493929190612715565b6020604051808303816000875af192505050801561137957506040513d601f19601f820116820180604052508101906113769190612776565b60015b6113fd573d80600081146113a9576040519150601f19603f3d011682016040523d82523d6000602084013e6113ae565b606091505b5060008151036113f557836040517f64a0ae920000000000000000000000000000000000000000000000000000000081526004016113ec9190611d45565b60405180910390fd5b805181602001fd5b63150b7a0260e01b7bffffffffffffffffffffffffffffffffffffffffffffffffffffffff1916817bffffffffffffffffffffffffffffffffffffffffffffffffffffffff19161461148657836040517f64a0ae9200000000000000000000000000000000000000000000000000000000815260040161147d9190611d45565b60405180910390fd5b505b50505050565b606060405180602001604052806000815250905090565b60606114b082610bcd565b5060006114bb61148e565b905060008151116114db5760405180602001604052806000815250611506565b806114e58461183e565b6040516020016114f692919061241e565b6040516020818303038152906040525b915050919050565b60007f01ffc9a7000000000000000000000000000000000000000000000000000000007bffffffffffffffffffffffffffffffffffffffffffffffffffffffff1916827bffffffffffffffffffffffffffffffffffffffffffffffffffffffff1916149050919050565b60006002600083815260200190815260200160002060009054906101000a900473ffffffffffffffffffffffffffffffffffffffff169050919050565b80806115ee5750600073ffffffffffffffffffffffffffffffffffffffff168273ffffffffffffffffffffffffffffffffffffffff1614155b156117225760006115fe84610bcd565b9050600073ffffffffffffffffffffffffffffffffffffffff168373ffffffffffffffffffffffffffffffffffffffff161415801561166957508273ffffffffffffffffffffffffffffffffffffffff168173ffffffffffffffffffffffffffffffffffffffff1614155b801561167c575061167a81846109d1565b155b156116be57826040517fa9fbf51f0000000000000000000000000000000000000000000000000000000081526004016116b59190611d45565b60405180910390fd5b811561172057838573ffffffffffffffffffffffffffffffffffffffff168273ffffffffffffffffffffffffffffffffffffffff167f8c5be1e5ebec7d5bd14f71427d1e84f3dd0314c0f7b2291e5b200ac8c7c3b92560405160405180910390a45b505b836004600085815260200190815260200160002060006101000a81548173ffffffffffffffffffffffffffffffffffffffff021916908373ffffffffffffffffffffffffffffffffffffffff16021790555050505050565b61178583838361190c565b61183957600073ffffffffffffffffffffffffffffffffffffffff168373ffffffffffffffffffffffffffffffffffffffff16036117fa57806040517f7e2732890000000000000000000000000000000000000000000000000000000081526004016117f19190611f20565b60405180910390fd5b81816040517f177e802f0000000000000000000000000000000000000000000000000000000081526004016118309291906127a3565b60405180910390fd5b505050565b60606000600161184d846119cd565b01905060008167ffffffffffffffff81111561186c5761186b611fac565b5b6040519080825280601f01601f19166020018201604052801561189e5781602001600182028036833780820191505090505b509050600082602001820190505b600115611901578080600190039150507f3031323334353637383961626364656600000000000000000000000000000000600a86061a8153600a85816118f5576118f46127cc565b5b049450600085036118ac575b819350505050919050565b60008073ffffffffffffffffffffffffffffffffffffffff168373ffffffffffffffffffffffffffffffffffffffff16141580156119c457508273ffffffffffffffffffffffffffffffffffffffff168473ffffffffffffffffffffffffffffffffffffffff161480611985575061198484846109d1565b5b806119c357508273ffffffffffffffffffffffffffffffffffffffff166119ab83610c55565b73ffffffffffffffffffffffffffffffffffffffff16145b5b90509392505050565b600080600090507a184f03e93ff9f4daa797ed6e38ed64bf6a1f0100000000000000008310611a2b577a184f03e93ff9f4daa797ed6e38ed64bf6a1f0100000000000000008381611a2157611a206127cc565b5b0492506040810190505b6d04ee2d6d415b85acef81000000008310611a68576d04ee2d6d415b85acef81000000008381611a5e57611a5d6127cc565b5b0492506020810190505b662386f26fc100008310611a9757662386f26fc100008381611a8d57611a8c6127cc565b5b0492506010810190505b6305f5e1008310611ac0576305f5e1008381611ab657611ab56127cc565b5b0492506008810190505b6127108310611ae5576127108381611adb57611ada6127cc565b5b0492506004810190505b60648310611b085760648381611afe57611afd6127cc565b5b0492506002810190505b600a8310611b17576001810190505b80915050919050565b6000604051905090565b600080fd5b600080fd5b60007fffffffff0000000000000000000000000000000000000000000000000000000082169050919050565b611b6981611b34565b8114611b7457600080fd5b50565b600081359050611b8681611b60565b92915050565b600060208284031215611ba257611ba1611b2a565b5b6000611bb084828501611b77565b91505092915050565b60008115159050919050565b611bce81611bb9565b82525050565b6000602082019050611be96000830184611bc5565b92915050565b600081519050919050565b600082825260208201905092915050565b60005b83811015611c29578082015181840152602081019050611c0e565b60008484015250505050565b6000601f19601f8301169050919050565b6000611c5182611bef565b611c5b8185611bfa565b9350611c6b818560208601611c0b565b611c7481611c35565b840191505092915050565b60006020820190508181036000830152611c998184611c46565b905092915050565b6000819050919050565b611cb481611ca1565b8114611cbf57600080fd5b50565b600081359050611cd181611cab565b92915050565b600060208284031215611ced57611cec611b2a565b5b6000611cfb84828501611cc2565b91505092915050565b600073ffffffffffffffffffffffffffffffffffffffff82169050919050565b6000611d2f82611d04565b9050919050565b611d3f81611d24565b82525050565b6000602082019050611d5a6000830184611d36565b92915050565b611d6981611d24565b8114611d7457600080fd5b50565b600081359050611d8681611d60565b92915050565b60008060408385031215611da357611da2611b2a565b5b6000611db185828601611d77565b9250506020611dc285828601611cc2565b9150509250929050565b600080600060608486031215611de557611de4611b2a565b5b6000611df386828701611d77565b9350506020611e0486828701611d77565b9250506040611e1586828701611cc2565b9150509250925092565b600080fd5b600080fd5b600080fd5b60008083601f840112611e4457611e43611e1f565b5b8235905067ffffffffffffffff811115611e6157611e60611e24565b5b602083019150836001820283011115611e7d57611e7c611e29565b5b9250929050565b600080600060408486031215611e9d57611e9c611b2a565b5b6000611eab86828701611d77565b935050602084013567ffffffffffffffff811115611ecc57611ecb611b2f565b5b611ed886828701611e2e565b92509250509250925092565b600060208284031215611efa57611ef9611b2a565b5b6000611f0884828501611d77565b91505092915050565b611f1a81611ca1565b82525050565b6000602082019050611f356000830184611f11565b92915050565b611f4481611bb9565b8114611f4f57600080fd5b50565b600081359050611f6181611f3b565b92915050565b60008060408385031215611f7e57611f7d611b2a565b5b6000611f8c85828601611d77565b9250506020611f9d85828601611f52565b9150509250929050565b600080fd5b7f4e487b7100000000000000000000000000000000000000000000000000000000600052604160045260246000fd5b611fe482611c35565b810181811067ffffffffffffffff8211171561200357612002611fac565b5b80604052505050565b6000612016611b20565b90506120228282611fdb565b919050565b600067ffffffffffffffff82111561204257612041611fac565b5b61204b82611c35565b9050602081019050919050565b82818337600083830152505050565b600061207a61207584612027565b61200c565b90508281526020810184848401111561209657612095611fa7565b5b6120a1848285612058565b509392505050565b600082601f8301126120be576120bd611e1f565b5b81356120ce848260208601612067565b91505092915050565b600080600080608085870312156120f1576120f0611b2a565b5b60006120ff87828801611d77565b945050602061211087828801611d77565b935050604061212187828801611cc2565b925050606085013567ffffffffffffffff81111561214257612141611b2f565b5b61214e878288016120a9565b91505092959194509250565b600067ffffffffffffffff82111561217557612174611fac565b5b61217e82611c35565b9050602081019050919050565b600061219e6121998461215a565b61200c565b9050828152602081018484840111156121ba576121b9611fa7565b5b6121c5848285612058565b509392505050565b600082601f8301126121e2576121e1611e1f565b5b81356121f284826020860161218b565b91505092915050565b6000806040838503121561221257612211611b2a565b5b600061222085828601611d77565b925050602083013567ffffffffffffffff81111561224157612240611b2f565b5b61224d858286016121cd565b9150509250929050565b6000806040838503121561226e5761226d611b2a565b5b600061227c85828601611d77565b925050602061228d85828601611d77565b9150509250929050565b7f4e487b7100000000000000000000000000000000000000000000000000000000600052602260045260246000fd5b600060028204905060018216806122de57607f821691505b6020821081036122f1576122f0612297565b5b50919050565b600060608201905061230c6000830186611d36565b6123196020830185611f11565b6123266040830184611d36565b949350505050565b7f4e487b7100000000000000000000000000000000000000000000000000000000600052601160045260246000fd5b600061236882611ca1565b915061237383611ca1565b925082820190508082111561238b5761238a61232e565b5b92915050565b600061239d8385611bfa565b93506123aa838584612058565b6123b383611c35565b840190509392505050565b600060208201905081810360008301526123d9818486612391565b90509392505050565b600081905092915050565b60006123f882611bef565b61240281856123e2565b9350612412818560208601611c0b565b80840191505092915050565b600061242a82856123ed565b915061243682846123ed565b91508190509392505050565b60008190508160005260206000209050919050565b60006020601f8301049050919050565b600082821b905092915050565b6000600883026124a47fffffffffffffffffffffffffffffffffffffffffffffffffffffffffffffffff82612467565b6124ae8683612467565b95508019841693508086168417925050509392505050565b6000819050919050565b60006124eb6124e66124e184611ca1565b6124c6565b611ca1565b9050919050565b6000819050919050565b612505836124d0565b612519612511826124f2565b848454612474565b825550505050565b600090565b61252e612521565b6125398184846124fc565b505050565b5b8181101561255d57612552600082612526565b60018101905061253f565b5050565b601f8211156125a25761257381612442565b61257c84612457565b8101602085101561258b578190505b61259f61259785612457565b83018261253e565b50505b505050565b600082821c905092915050565b60006125c5600019846008026125a7565b1980831691505092915050565b60006125de83836125b4565b9150826002028217905092915050565b6125f782611bef565b67ffffffffffffffff8111156126105761260f611fac565b5b61261a82546122c6565b612625828285612561565b600060209050601f8311600181146126585760008415612646578287015190505b61265085826125d2565b8655506126b8565b601f19841661266686612442565b60005b8281101561268e57848901518255600182019150602085019450602081019050612669565b868310156126ab57848901516126a7601f8916826125b4565b8355505b6001600288020188555050505b505050505050565b600081519050919050565b600082825260208201905092915050565b60006126e7826126c0565b6126f181856126cb565b9350612701818560208601611c0b565b61270a81611c35565b840191505092915050565b600060808201905061272a6000830187611d36565b6127376020830186611d36565b6127446040830185611f11565b818103606083015261275681846126dc565b905095945050505050565b60008151905061277081611b60565b92915050565b60006020828403121561278c5761278b611b2a565b5b600061279a84828501612761565b91505092915050565b60006040820190506127b86000830185611d36565b6127c56020830184611f11565b9392505050565b7f4e487b7100000000000000000000000000000000000000000000000000000000600052601260045260246000fdfea2646970667358221220c20da2bde83bee0d455bc63fc117268812226ed38e6fe147ab234c2914a49bab64736f6c63430008140033",
  "linkReferences": {},
  "deployedLinkReferences": {}
}